:204400002A1440181A425C014018B240805A5C018F0000009F000100142889000000880050
:2044200000000D3C0C097F4C4F4F5F0600185F4F0000A90004000D094F13A9000400D908D7
:20444000F12B7AC23AD0085A4018824A5C018F0000009F00000009248A000000033C6A1376
:20446000AA0004009A000000FA2328161001B240805A5C0192C33001B24010A54001C243EC
:204480000202C2430302C2432202C243230282432203C2430402B24040002403F2408000BB
:2044A0000502C2432402F2400D002502F2D020002302F240A5006101B24046006201B24097
:2044C00003006401B2D03000640182436601B2D040002203FF3F034381000024B013F84422
:2044E0000C930224B01300440C43B0136E44B013FC4432D01000FD3F1C4310010343FF3FE7
:02FECC00F244FE
:02FECE00F244FC
:02FED000F244FA
:02FED200F244F8
:02FED400F244F6
:02FED600F244F4
:02FED800F244F2
:02FEDA00F244F0
:02FEDC00F244EE
:02FEDE00F244EC
:02FEE000F244EA
:02FEE200F244E8
:02FEE400F244E6
:02FEE600F244E4
:02FEE800F244E2
:02FEEA00F244E0
:02FEEC00F244DE
:02FEEE00F244DC
:02FEF000F244DA
:02FEF200F244D8
:02FEF400F244D6
:02FEF600F244D4
:02FEF800F244D2
:02FEFA00F244D0
:02FEFC00F244CE
:02FEFE00D844E6
:00000001FF
